{
  "contractName": "DataCenter",
  "abi": [
    {
      "constant": true,
      "inputs": [],
      "name": "storeddata1",
      "outputs": [
        {
          "name": "",
          "type": "uint256"
        }
      ],
      "payable": false,
      "stateMutability": "view",
      "type": "function",
      "signature": "0x7f84097b"
    },
    {
      "constant": true,
      "inputs": [],
      "name": "storeddata2",
      "outputs": [
        {
          "name": "",
          "type": "uint256"
        }
      ],
      "payable": false,
      "stateMutability": "view",
      "type": "function",
      "signature": "0xcd63a4ae"
    },
    {
      "inputs": [],
      "payable": false,
      "stateMutability": "nonpayable",
      "type": "constructor",
      "signature": "constructor"
    },
    {
      "constant": false,
      "inputs": [
        {
          "name": "x",
          "type": "uint256"
        }
      ],
      "name": "set1",
      "outputs": [],
      "payable": false,
      "stateMutability": "nonpayable",
      "type": "function",
      "signature": "0x9bc39d3c"
    },
    {
      "constant": true,
      "inputs": [],
      "name": "get1",
      "outputs": [
        {
          "name": "",
          "type": "uint256"
        }
      ],
      "payable": false,
      "stateMutability": "view",
      "type": "function",
      "signature": "0x054c1a75"
    },
    {
      "constant": false,
      "inputs": [
        {
          "name": "x",
          "type": "uint256"
        }
      ],
      "name": "set2",
      "outputs": [],
      "payable": false,
      "stateMutability": "nonpayable",
      "type": "function",
      "signature": "0xce01e1ec"
    },
    {
      "constant": true,
      "inputs": [],
      "name": "get2",
      "outputs": [
        {
          "name": "",
          "type": "uint256"
        }
      ],
      "payable": false,
      "stateMutability": "view",
      "type": "function",
      "signature": "0xd2178b08"
    }
  ],
  "bytecode": "0x608060405234801561001057600080fd5b50336000806101000a81548173ffffffffffffffffffffffffffffffffffffffff021916908373ffffffffffffffffffffffffffffffffffffffff16021790555073daf55d7ec093afbacfa5025bef59b3fe30c7d7a8600360006101000a81548173ffffffffffffffffffffffffffffffffffffffff021916908373ffffffffffffffffffffffffffffffffffffffff1602179055507397ad9c3b70d3c14bc107bf0e96a13ccf5c8a1b0f600460006101000a81548173ffffffffffffffffffffffffffffffffffffffff021916908373ffffffffffffffffffffffffffffffffffffffff160217905550609960018190555060d06002819055506102b78061011a6000396000f3fe608060405260043610610078576000357c0100000000000000000000000000000000000000000000000000000000900463ffffffff168063054c1a751461007d5780637f84097b146100a85780639bc39d3c146100d3578063cd63a4ae1461010e578063ce01e1ec14610139578063d2178b0814610174575b600080fd5b34801561008957600080fd5b5061009261019f565b6040518082815260200191505060405180910390f35b3480156100b457600080fd5b506100bd6101a9565b6040518082815260200191505060405180910390f35b3480156100df57600080fd5b5061010c600480360360208110156100f657600080fd5b81019080803590602001909291905050506101af565b005b34801561011a57600080fd5b50610123610215565b6040518082815260200191505060405180910390f35b34801561014557600080fd5b506101726004803603602081101561015c57600080fd5b810190808035906020019092919050505061021b565b005b34801561018057600080fd5b50610189610281565b6040518082815260200191505060405180910390f35b6000600154905090565b60015481565b600360009054906101000a900473ffffffffffffffffffffffffffffffffffffffff1673ffffffffffffffffffffffffffffffffffffffff163373ffffffffffffffffffffffffffffffffffffffff1614151561020b57600080fd5b8060018190555050565b60025481565b600460009054906101000a900473ffffffffffffffffffffffffffffffffffffffff1673ffffffffffffffffffffffffffffffffffffffff163373ffffffffffffffffffffffffffffffffffffffff1614151561027757600080fd5b8060028190555050565b600060025490509056fea165627a7a72305820eb202b343f4888b1be6a9b2b80f8a3d299989e29f700a23b0a38a257df3ffe160029",
  "source": "pragma solidity ^0.5.0;\n\n\n\ncontract DataCenter {\n\n    address payable admin;    \n    uint public storeddata1;\n    uint public storeddata2;\n    address payable node1;\n    address payable node2;\n\n    constructor () public {\n        admin = msg.sender;        \n        node1= 0xdAf55D7ec093aFBaCFA5025BEf59b3fE30C7D7a8;\n        node2= 0x97ad9C3b70d3C14Bc107Bf0e96A13CCF5c8A1b0f;\n        storeddata1= 153;\n        storeddata2= 208;\n    }\n\n    function set1(uint x) public{\n        require(msg.sender == node1);\n    storeddata1 = x;\n    }\n    function get1() public view returns(uint){\n    return storeddata1;\n    }\n\n\n    function set2(uint x) public{\n        require(msg.sender == node2);\n    storeddata2 = x;\n    }\n    function get2() public view returns(uint){\n    return storeddata2;\n    }\n\n    }\n",
  "sourcePath": "/Users/apple/Downloads/eth-iot/contracts/DataCenter.sol",
  "compiler": {
    "name": "solc",
    "version": "0.5.0+commit.1d4f565a.Emscripten.clang"
  },
  "schemaVersion": "3.0.1",
  "updatedAt": "2019-03-13T08:19:49.603Z",
  "devdoc": {
    "methods": {}
  },
  "userdoc": {
    "methods": {}
  }
}